:020000040200F8
:1000000011A8000000000000000000000000000037
:100010006F00A00B174100FF1301C1FE970200FF04
:1000200093828254170300FF1303036A63D66200AE
:1000300023A002009102DDBF97220000938222B923
:10004000170300FF130303FC970300FF9383C350C0
:100050006359730003AE02002320C3019102110310
:10006000C5BFB52001A0AA87370700010325475562
:10007000AA9737470001130707E06367F7003707C0
:100080000001232AF7548280411106C6D120B147CE
:100090001CC17D55B240410182801DC541119306AE
:1000A000F5FF0967130777327D5602C6B2476368CA
:1000B000F700B24785073EC6B247E37CF7FEFD1660
:1000C000E395C6FE410182808280730020300111D9
:1000D00006CE22CC26CA4AC84EC652C437070020D4
:1000E00085471CC79306A00E54C7E14614CB5CC3DA
:1000F0003546B72600029386C6BB51073705002058
:10010000B7250002938595BC85061C43858BF5FFBA
:1001100010C103C60600E399B6FEB7070070054795
:1001200098C33704006021043A89B7090060910937
:10013000130AF00F9304401F2320240123A0490138
:100140002685A13F232024012685813FF5B70000A5
:10015000B707000103A5875567800000130500005D
:100160006780000037060001B7150002370500015F
:10017000130606149385456B130505006F00803642
:10018000130101FF8325450023248100370400016A
:1001900023229100232611001304445693040500E2
:1001A00063848500EF10005183A5840093078406C3
:1001B0006386F50013850400EF10C04F83A5C400CB
:1001C0001304040D638E8500032481008320C10085
:1001D0001385040083244100130101016F10804D39
:1001E0008320C10003248100832441001301010105
:1001F000678000001305000067800000130101FE06
:10020000232C81003704000113044456B707000271
:10021000232E1100232A91002328210123263101B6
:1002200023244101930640003707000193874716B6
:100230001305C40513068000930500002326D4008F
:100240002322F76C2320040023220400232404002B
:100250002322040623280400232A0400232C04005C
:10026000EF00C071B7070100370A0002B7090002AA
:1002700037090002B7040002130A8A599389C95F3B
:10028000130949689384846E938797001305440C7F
:100290001306800093050000232AF406232044035C
:1002A000232234032324240323269402232E8400B0
:1002B0002324040623260406232804062326040CEC
:1002C000232C0406232E040623200408EF00006BD1
:1002D000B707020013078406938727011305C4128A
:1002E00013068000930500002324440923263409C3
:1002F00023282409232A9408232EF40C2328040CF1
:10030000232A040C232C040C232A04122320040E79
:100310002322040E2324040E2322E408EF000066A7
:100320009307040D2328440F232A340F232C240F72
:10033000232E940E8320C1012326F40E0324810171
:1003400083244101032901018329C100032A81007B
:100350001301010267800000B707000183A7476C03
:10036000130101FE23263101232E1100232C8100CD
:10037000232A910023282101930905006388070E91
:1003800037090001130909149304F0FF832749007A
:10039000032489009387F7FF63D807006F000008E4
:1003A00013048406638C97060317C4009387F7FF32
:1003B000E31807FEB707FFFF938717002322040601
:1003C0002320040023240400232204002328040003
:1003D000232A0400232C04002326F40013068000A3
:1003E000930500001305C405EF00405923280402BB
:1003F000232A040223220404232404048320C101A9
:100400001305040003248101832441010329010110
:100410008329C10013010102678000000324090041
:1004200063060400130904006FF05FF69305C01A19
:1004300013850900EF00102613040500630C050264
:10044000930740001305C500232004002322F40075
:100450002324A4001306001A93050000EF000052A5
:1004600023208900130904006FF05FF2EFF01FD919
:100470006FF01FF1232009009307C00023A0F900AB
:100480006FF0DFF783274503638407006780000070
:1004900037070001B70700020327476C9387071847
:1004A000232AF502E31407FE6FF05FD56780000092
:1004B0006780000037060001B70500021306061426
:1004C0009385C515130500006F00C00137060001B4
:1004D000B7050002130606149385451F1305000097
:1004E0006F004000130101FD23202103232E310161
:1004F000232C4101232A5101232861012326710164
:10050000232611022324810223229102130B0500CA
:10051000938B0500930A0600130A0000930910004C
:100520001309F0FF83A44A0003A48A009384F4FF14
:1005300063C804028357C40063FEF9008317E40014
:100540009305040013050B0063862701E7800B0069
:10055000336AAA009384F4FF13048406E39C24FD09
:1005600083AA0A00E3900AFC8320C10203248102CB
:1005700083244102032901028329C101832A410105
:10058000032B0101832BC10013050A00032A8101FB
:100590001301010367800000130101FF2324810080
:1005A000138405008395E50023261100EF00802FBA
:1005B00063400502832704058320C100B387A70099
:1005C0002328F40403248100130101016780000043
:1005D0008357C40037F7FFFF1307F7FFB3F7E700B0
:1005E0008320C1002316F4000324810013010101BC
:1005F0006780000013050000678000008397C50036
:10060000130101FE232C8100232A910023282101BC
:1006100023263101232E110013F707101384050040
:10062000130906009389060093040500631007046C
:1006300037F7FFFF1307F7FFB3F7E7008315E40071
:100640002316F400032481018320C101938609004D
:10065000130609008329C100032901011385040041
:1006600083244101130101026F00802A8395E50074
:100670009306200013060000EF00001C8317C4003F
:100680006FF01FFB130101FF232481001384050079
:100690008395E50023261100EF00001A1307F0FFF1
:1006A0008317C4006302E50237170000B3E7E700D1
:1006B0008320C1002328A4042316F400032481000E
:1006C000130101016780000037F7FFFF1307F7FFF1
:1006D000B3F7E7008320C1002316F4000324810050
:1006E00013010101678000008395E5006F00400061
:1006F000130101FF2324810023229100130405002C
:10070000B7040001138505002326110023A4046CFF
:10071000EF10C0459307F0FF630CF5008320C10084
:10072000032481008324410013010101678000003C
:1007300083A7846CE38407FE8320C1002320F40098
:10074000032481008324410013010101678000001C
:10075000B707000183A78755638EA70C832545043F
:10076000130101FE232A9100232E1100232C810066
:100770009304050063880504232821012326310101
:100780001309000093090008B387250103A407009B
:10079000630E040093050400032404001385040081
:1007A000EF00C03FE31804FE83A544041309490089
:1007B000E31C39FD13850400EF00403E03290101CD
:1007C0008329C10083A58403638605001385040083
:1007D000EF00C03C03A40404630C04009305040070
:1007E0000324040013850400EF00403BE31804FEDB
:1007F00083A5C4046386050013850400EF00003A56
:1008000083A74403638E0700032481018320C10171
:10081000138504008324410113010102678007004E
:100820008320C101032481018324410113010102BA
:100830006780000067800000130101FF1387050037
:100840002324810023229100930506001304050050
:1008500013860600B70400011305070023261100C4
:1008600023A4046CEF10C0319307F0FF630CF50074
:100870008320C1000324810083244100130101016E
:100880006780000083A7846CE38407FE8320C10097
:100890002320F4000324810083244100130101017B
:1008A00067800000130101FF1387050023248100E6
:1008B0002322910093050600130405001386060009
:1008C000B7040001130507002326110023A4046CBC
:1008D000EF10402C9307F0FF630CF5008320C1005C
:1008E000032481008324410013010101678000007B
:1008F00083A7846CE38407FE8320C1002320F400D7
:10090000032481008324410013010101678000005A
:10091000130101FF13870500232481002322910086
:10092000930506001304050013860600B7040001B2
:10093000130507002326110023A4046CEF10C02622
:100940009307F0FF630CF5008320C10003248100AE
:1009500083244100130101016780000083A7846C98
:10096000E38407FE8320C1002320F40003248100D8
:100970008324410013010101678000001303F0008C
:1009800013070500637EC3029377F7006390070A9D
:1009900063920508937606FF1376F600B386E600A9
:1009A0002320B7002322B7002324B7002326B70053
:1009B00013070701E366D7FE631406006780000093
:1009C000B306C3409396260097020000B3865600F4
:1009D0006780C6002307B700A306B7002306B70049
:1009E000A305B7002305B700A304B7002304B7008D
:1009F000A303B7002303B700A302B7002302B70085
:100A0000A301B7002301B700A300B7002300B7007C
:100A10006780000093F5F50F93968500B3E5D50048
:100A200093960501B3E5D5006FF0DFF693962700A6
:100A300097020000B386560093820000E78006FA12
:100A400093800200938707FF3307F7403306F600D1
:100A5000E378C3F66FF0DFF3130101FE23263101C3
:100A6000B7090001232C8100232A910023282101AA
:100A700023244101232E1100138A050013090500C8
:100A80009389C914EF00904283A7890037140000AE
:100A90001304F4FE83A44700B717000093F4C4FFC7
:100AA00033848400330444411354C4001304F4FF1A
:100AB0001314C400634EF4009305000013050900ED
:100AC000EF10C00483A78900B38797006308F5027D
:100AD00013050900EF00D03D8320C10103248101EB
:100AE00083244101032901018329C100032A8100D4
:100AF000130500001301010267800000B305804068
:100B000013050900EF1080009307F0FF630AF50456
:100B1000B70700019387C76983A6890003A7070069
:100B2000B384844093E4140013050900330787401D
:100B300023A2960023A0E700EF0090378320C10195
:100B40000324810183244101032901018329C10078
:100B5000032A8100130510001301010267800000C1
:100B60009305000013050900EF00507A03A78900E0
:100B70009306F000B307E540E3DCF6F4B7060001A6
:100B800003A6C65593E71700B70600013305C54015
:100B90002322F70023AEA6686FF09FF36386051249
:100BA000130101FF232481002322910013840500F7
:100BB0009304050023261100EF00502F0325C4FFE6
:100BC000130784FFB70500019377E5FF3306F700AD
:100BD0009385C5148326460003A8850093781500E5
:100BE00093F6C6FF630CC8182322D6003308D6003C
:100BF0000328480013781800639C0808032384FF27
:100C00003705000113054515330767408328870022
:100C1000B3876700638EA8120323C70023A668006A
:100C2000232413016304081A93E617002322D70034
:100C30002320F6009306F01F63E4F60A93F687FF7D
:100C40009386860003A54500B386D50003A606005B
:100C500013D8570093071000B3970701B3E7A70015
:100C6000138586FF2324C7002326A70023A2F500AF
:100C700023A0E6002326E600032481008320C10090
:100C80001385040083244100130101016F005022E9
:100C9000631E080237050001B387D7001305451509
:100CA0008326860093E817003308F7006386A616AC
:100CB0000326C60023A6C6002324D600232217013C
:100CC0002320F8006FF01FF7678000001365150000
:100CD000232EA4FE2320F6009306F01FE3F0F6F681
:100CE00093D69700130640006366D60E93D667002E
:100CF0001385960313153500138686033385A500E7
:100D000083260500130585FF6318D5006F00801248
:100D100083A686006308D50003A646001376C6FFA7
:100D2000E3E8C7FE03A5C6002326A7002324D700B7
:100D3000032481002324E5008320C10013850400DF
:100D40008324410023A6E600130101016F00501621
:100D50006314080A8325C60003268600B386F600BE
:100D600093E716002326B60023A4C5002322F7002C
:100D70003307D7002320D7006FF01FF0B386D700CA
:100D800063900802032584FF3307A7408327C70029
:100D900003268700B386A6002326F60023A4C700F7
:100DA000B707000113E6160083A707562322C700E2
:100DB00023A4E500E3E2F6ECB707000183A5476D45
:100DC00013850400EFF05FC96FF01FEBB387D70006
:100DD0006FF01FED130640016378D602130640053D
:100DE0006368D60693D6C7001385F606131535003B
:100DF0001386E6066FF09FF093E617002322D700D4
:100E00002320F6006FF05FE71385C6051315350044
:100E10001386B6056FF09FEE23AAE50023A8E50030
:100E20002326A7002324A700232217012320F8004C
:100E30006FF09FE403A84500135626409307100067
:100E4000B397C700B3E7070123A2F5006FF0DFED0A
:100E500013064015636CD60093D6F70013858607FA
:100E600013153500138676076FF05FE913064055BA
:100E7000636CD60093D627011385D607131535006A
:100E80001386C6076FF09FE71305803F1306E00740
:100E90006FF0DFE6130101FD232E3101232611023D
:100EA0002324810223229102232021039387B5006A
:100EB00013076001930905006360F70893040001BC
:100EC00063E2B420EF00807E930780019305200049
:100ED000370900011309C914B307F90003A4470037
:100EE000138787FF630CE444832744008326C400F0
:100EF0000326840093F7C7FFB307F40003A7470056
:100F00002326D60023A4C600136717001385090003
:100F100023A2E700EF00C0798320C10213058400FB
:100F20000324810283244102032901028329C10190
:100F3000130101036780000093F487FF63C407185F
:100F400063E2B418EF0080769307701F63F2975046
:100F500093D79400638C0718130740006368F74425
:100F600093D76400938597031388870313963500FE
:100F7000370900011309C9143306C90003244600C8
:100F8000130686FF630886021305F0006F00400118
:100F90008326C40063520736630ED600138406000E
:100FA0008327440093F7C7FF33879740E352E5FE5A
:100FB000930508000324090193088900630E142B8C
:100FC000832744009306F00093F7C7FF33879740C9
:100FD00063C6E648232A190123281901635A0744E6
:100FE0001307F01F032549006362F73613F787FFE5
:100FF000130787003307E9008326070013D657003D
:1010000093071000B397C7003365F500930787FF78
:101010002324D4002326F4002322A90023208700C0
:1010200023A6860093D72540130610003316F6003A
:101030006366C50CB377A600639407021316160007
:1010400093F5C5FFB377A60093854500639A070023
:1010500013161600B377A60093854500E38A07FEB2
:101060001308F000139335003303690013050300E0
:101070008327C500138E0500630CF53403A74700D2
:101080001384070083A7C7001377C7FFB3069740F1
:10109000634CD834E3C206FE3307E40083264700DE
:1010A000032684001385090093E616002322D70047
:1010B0002326F60023A4C700EF00805F13058400F9
:1010C0006F0000019307C00023A0F9001305000082
:1010D0008320C102032481028324410203290102E7
:1010E0008329C1011301010367800000130600205A
:1010F000930500041308F0036FF09FE703248900B1
:10110000232861018327440013FBC7FF63689B000A
:1011100033079B409307F00063CEE718B707000141
:1011200023229101B70C0001232C410103A7CC55C8
:1011300003AA476D232A5101232671019307F0FF6B
:10114000338A4401B30A64016300F73EB717000015
:101150009387F700330AFA00B7F7FFFF337AFA00F4
:1011600093050A0013850900EF00501A9307F0FF5A
:10117000930B0500630EF54623248101636255112C
:10118000370C0001130CCC6903270C003307EA006D
:101190002320EC006384AA4683A6CC559307F0FF76
:1011A000638CF646B3875B41B387E7002320FC00DE
:1011B00093FC7B00638A0C38B38B9B41371700008C
:1011C000938B8B0013078700338A4B0133079741BA
:1011D0003307474113174701935A470193850A0084
:1011E00013850900EF0090129307F0FF6306F546A0
:1011F00033057541330A550103270C002324790177
:1012000093671A003387EA0023A2FB002320EC0037
:10121000630E24031306F000637E663583264400C4
:1012200093074BFF93F787FF93F61600B3E6F6009C
:101230002322D40093055000B306F40023A2B60085
:1012400023A4B6006366F62C83A74B00B706000103
:1012500003A6066D6374E60023A8E66CB7060001DA
:1012600003A6C66C6374E60023A6E66C032C81001B
:1012700013840B006F00C001032549006FF09FDA53
:10128000630C243503248900032C81008327440048
:1012900093F7C7FF3387974063E4972E9307F000D7
:1012A00063D0E72E032A8101832A4101832BC100E9
:1012B000832C410093E714002322F400B30494002C
:1012C00023249900136717001385090023A2E40063
:1012D000EF00003E8320C102130584000324810235
:1012E000032B010183244102032901028329C10147
:1012F000130101036780000003268400B307F40094
:1013000003A747002326D60023A4C60013671700AF
:101310001385090023A2E700EF0080398320C10272
:10132000130584000324810283244102032901025E
:101330008329C101130101036780000003A4C700D2
:1013400093852500E38887C66FF01FBA13D79700EF
:101350009306400063F2E6149306400163E2E6243C
:101360001306C705131636009306B7053306C900E2
:1013700003270600130686FF6318E6006F00401B74
:10138000032787006308E6008326470093F6C6FF1D
:10139000E3E8D7FE0326C7002326C4002324E40085
:1013A00023248600232687006FF0DFC71307400140
:1013B000637EF70E130740056362F72093D7C400DE
:1013C0009385F7061388E706139635006FF05FBA2A
:1013D000130E1E0093773E00130585006386070EEB
:1013E0008327C5006FF05FC90326840093E51400CE
:1013F0002322B4002326F60023A4C700B3049400DC
:10140000232A99002328990093E716003307E40064
:1014100023A6140123A4140123A2F40013850900B8
:101420002320D700EF00C028130584006FF05FCAA7
:10143000B307F40003A747001385090013671700DB
:1014400023A2E700EF00C026130584006FF05FC8F9
:1014500093D53400938784006FF09FA793E6140020
:101460002322D400B3049400232A9900232899004E
:1014700093661700B307F40023A6140123A41401F4
:1014800023A2D4001385090023A0E700EF00402227
:10149000130584006FF0DFC313D7670013069703AB
:1014A00013163600930687036FF05FEC9385C7052C
:1014B0001388B705139635006FF09FAB8327830021
:1014C0009385F5FF6390671E93F73500130383FF41
:1014D000E39607FE032749009347F6FFB3F7E700BB
:1014E0002322F90013161600E3EAC7C0E30806C07A
:1014F0003377F600631A0700131616003377F600E9
:10150000130E4E00E30A07FE93050E006FF09FB521
:101510009305840013850900EFF04FE803270C00C2
:10152000832B89006FF05FD2130A0A016FF05FC34B
:1015300093D6264093071000B397D7003365F50084
:101540002322A9006FF05FE533874B013307E040AA
:1015500013174701935A470193850A001385090021
:10156000EF00C05A9307F0FFE314F5C8930A000098
:101570006FF09FC8032C81009307100023A2FB008B
:1015800013850900EF00C012032A8101832A41015B
:10159000032B0101832BC100832C41006FF01FB38B
:1015A0009306400563EEE60613D7C7001306F70659
:1015B000131636009306E7066FF05FDB130740153E
:1015C000636EF70693D7F400938587071388770730
:1015D000139635006FF0DF99370C0001130CCC69BE
:1015E00003270C003307EA002320EC006FF0DFBA7A
:1015F00003248900832744006FF09FC99317450196
:10160000E39C07B8832B8900B3074B0193E71700CE
:1016100023A2FB006FF09FC323AE7C556FF05FB930
:101620009306401563E4E60413D7F7001306870713
:1016300013163600930677076FF05FD313074055F4
:101640006364F70493D724019385D7071388C707EA
:10165000139635006FF0DF91938C8CFF330A9A015B
:10166000330A7A41930A00006FF01FB99306405580
:1016700063E4E60213D727011306D70713163600D3
:101680009306C7076FF09FCE1306803F9305F007C0
:101690001308E0076FF0DF8D1306803F9306E00725
:1016A0006FF0DFCC832749006FF0DFE36780000035
:1016B00067800000130101FF232611002320210170
:1016C00063880502232481002322910013840500EE
:1016D000930405006306050083274503638C070C0C
:1016E0008317C4006392070203248100832441000E
:1016F0008320C1001309000013050900032901001C
:1017000013010101678000009305040013850400A4
:10171000EF00C00B8327C40213090500638A07008A
:101720008325C40113850400E78007006344050690
:101730008357C40093F707086396070683250403BD
:10174000638C0500930704046386F5001385040089
:10175000EFF0CFC4232804028325440463880500E6
:1017600013850400EFF08FC323220404EFE01FD49D
:1017700023160400EFE0DFD38320C100032481009F
:10178000832441001305090003290100130101010D
:10179000678000008357C4001309F0FF93F7070820
:1017A000E38E07F88325040113850400EFF00FBFD3
:1017B0006FF0DFF8EFE01FCD6FF09FF2B707000189
:1017C0009305050003A587556FF0DFEE0397C5006D
:1017D000130101FE232C810023263101232E110049
:1017E000937787001384050093090500639007121F
:1017F000B71700009387078083A64500B367F700FB
:101800002396F500635AD018032884026304080E57
:10181000232A91009316370183A4090023A009000D
:1018200063C806188325C401130600009306100040
:1018300013850900E70008009307F0FF1306050071
:10184000630AF51A8317C4000328840293F747003C
:10185000638E070003274400832704033306E64012
:10186000638607008327C4033306F6408325C4013B
:101870009306000013850900E70008001307F0FF36
:101880008317C400631AE51283A609001307D00169
:101890006360D71837074020130717003357D70066
:1018A00013771700630607160326040137F7FFFFB7
:1018B0001307F77F33F7E7002316E4002322040021
:1018C0002320C40013973701635407006388061070
:1018D0008325040323A09900638A05109307040459
:1018E0006386F50013850900EFF04FAB83244101B7
:1018F000232804028320C101032481018329C1001C
:101900001305000013010102678000002328210154
:1019100003A90501630A0908232A910083A405008D
:101920001377370023A02501B384244193070000D7
:101930006314070083A745012324F4006348900043
:101940006F0040063309A900635E900483274402B8
:101950008325C4019386040013060900138509003A
:10196000E7800700B384A440E34EA0FC8317C400C3
:101970000329010193E707048320C1012316F40022
:1019800003248101832441018329C1001305F0FF51
:10199000130101026780000083A6C503E346D0E679
:1019A0006FF05FF583244101032901016FF09FF47B
:1019B000032604056FF09FE98326040137F7FFFF34
:1019C0001307F77F33F7E7002316E4002322040010
:1019D0002320D40013973701E35C07EE832504032B
:1019E0002328A40423A09900E39A05EE832441014F
:1019F0006FF05FF083A70900E38607E41307D001C7
:101A0000638CE700130760016388E7008317C40055
:101A100093E707046FF05FF623A099008324410148
:101A20006FF05FED130101FE232C8100232E1100C6
:101A3000130405006306050083274503638A070234
:101A40008397C500639C07008320C10103248101A3
:101A50001305000013010102678000001305040054
:101A6000032481018320C101130101026FF01FD6FD
:101A70002326B100EFE01FA18325C1006FF05FFCBA
:101A800063020506B70700019305050003A5875506
:101A90006306050083274503638C07008397C50011
:101AA0006396070013050000678000006FF01FD2E7
:101AB000130101FE2326B1002324A100232E1100CF
:101AC000EFE05F9C8325C100032581008397C5005B
:101AD000639807028320C10113050000130101026E
:101AE0006780000037060001B725000237050001B6
:101AF00013060614938545A2130505006FE09F9E0B
:101B00008320C101130101026FF05FCC130101FFBB
:101B1000232481002322910013040500B70400014F
:101B2000138505002326110023A4046CEFE0AFD336
:101B30009307F0FF630CF5008320C10003248100AC
:101B400083244100130101016780000083A7846C96
:101B5000E38407FE8320C1002320F40003248100D6
:101B6000832441001301010167800000B7070001D1
:101B70001307800523A4E76C1305F0FF67800000BE
:101B8000B70700011307800523A4E76C1305F0FFD6
:101B900067800000B70700011307800523A4E76CE6
:101BA0001305F0FF67800000B707000113078005E9
:101BB00023A4E76C1305F0FF678000000D0A5B4269
:0A1BC0004F4F545D206F6B0D0A00BB
:101BCA000000000064050001CC0500013406000194
:101BDA0000000000000000000000000000000000FB
:101BEA0000000000000000000000000000000000EB
:101BFA0000000000000000000000000000000000DB
:101C0A0000000000000000000000000000000000CA
:101C1A0000000000000000000000000000000000BA
:101C2A0000000000000000000000000000000000AA
:101C3A00000000000000000000000000000000009A
:101C4A00000000000000000000000000000000008A
:101C5A000000000000000000010000000000000079
:101C6A000E33CDAB34126DE6ECDE05000B0000003E
:101C7A00000000000000000000000000000000005A
:101C8A00000000000000000000000000000000004A
:101C9A00000000000000000000000000000000003A
:101CAA00000000000000000000000000000000002A
:101CBA00000000000000000000000000000000001A
:101CCA00000000000000000000000000000000000A
:101CDA0000000000000000000000000000000000FA
:101CEA0000000000000000000000000000000000EA
:101CFA0000000000000000000000000000000000DA
:101D0A00000000000300000064050001000000005C
:101D1A00000000004C0100014C01000154010001C7
:101D2A00540100015C0100015C0100016401000131
:101D3A00640100016C0100016C01000174010001E1
:101D4A00740100017C0100017C0100018401000191
:101D5A00840100018C0100018C0100019401000141
:101D6A00940100019C0100019C010001A4010001F1
:101D7A00A4010001AC010001AC010001B4010001A1
:101D8A00B4010001BC010001BC010001C401000151
:101D9A00C4010001CC010001CC010001D401000101
:101DAA00D4010001DC010001DC010001E4010001B1
:101DBA00E4010001EC010001EC010001F401000161
:101DCA00F4010001FC010001FC0100010402000110
:101DDA00040200010C0200010C02000114020001BD
:101DEA00140200011C0200011C020001240200016D
:101DFA00240200012C0200012C020001340200011D
:101E0A00340200013C0200013C02000144020001CC
:101E1A00440200014C0200014C020001540200017C
:101E2A00540200015C0200015C020001640200012C
:101E3A00640200016C0200016C02000174020001DC
:101E4A00740200017C0200017C020001840200018C
:101E5A00840200018C0200018C020001940200013C
:101E6A00940200019C0200019C020001A4020001EC
:101E7A00A4020001AC020001AC020001B40200019C
:101E8A00B4020001BC020001BC020001C40200014C
:101E9A00C4020001CC020001CC020001D4020001FC
:101EAA00D4020001DC020001DC020001E4020001AC
:101EBA00E4020001EC020001EC020001F40200015C
:101ECA00F4020001FC020001FC020001040300010B
:101EDA00040300010C0300010C03000114030001B8
:101EEA00140300011C0300011C0300012403000168
:101EFA00240300012C0300012C0300013403000118
:101F0A00340300013C0300013C03000144030001C7
:101F1A00440300014C0300014C0300015403000177
:101F2A00540300015C0300015C0300016403000127
:101F3A00640300016C0300016C03000174030001D7
:101F4A00740300017C0300017C0300018403000187
:101F5A00840300018C0300018C0300019403000137
:101F6A00940300019C0300019C030001A4030001E7
:101F7A00A4030001AC030001AC030001B403000197
:101F8A00B4030001BC030001BC030001C403000147
:101F9A00C4030001CC030001CC030001D4030001F7
:101FAA00D4030001DC030001DC030001E4030001A7
:101FBA00E4030001EC030001EC030001F403000157
:101FCA00F4030001FC030001FC0300010404000106
:101FDA00040400010C0400010C04000114040001B3
:101FEA00140400011C0400011C0400012404000163
:101FFA00240400012C0400012C0400013404000113
:10200A00340400013C0400013C04000144040001C2
:10201A00440400014C0400014C0400015404000172
:10202A00540400015C0400015C0400016404000122
:10203A00640400016C0400016C04000174040001D2
:10204A00740400017C0400017C0400018404000182
:10205A00840400018C0400018C0400019404000132
:10206A00940400019C0400019C040001A4040001E2
:10207A00A4040001AC040001AC040001B404000192
:10208A00B4040001BC040001BC040001C404000142
:10209A00C4040001CC040001CC040001D4040001F2
:1020AA00D4040001DC040001DC040001E4040001A2
:1020BA00E4040001EC040001EC040001F404000152
:1020CA00F4040001FC040001FC0400010405000101
:1020DA00040500010C0500010C05000114050001AE
:1020EA00140500011C0500011C050001240500015E
:1020FA00240500012C0500012C050001340500010E
:10210A00340500013C0500013C05000144050001BD
:04211A004405000177
:10211E00C406000100000001FFFFFFFF00000200E7
:0400000502000000F5
:00000001FF
