:020000040200F8
:1000000009A800000000000000000000000000003F
:10001000B9A8174100FF1301E1FE970200FF938288
:100020006200171300FF1303630463D6620023A06A
:1000300002009102DDBF973200009382E25F170356
:1000400000FF130323FC970300FF938333FC6359E2
:10005000730003AE02002320C30191021103C5BF48
:10006000B702F0FFFD120BE00206312A01A0397140
:1000700006C016C21AC41EC62AC82ECA32CC36CE34
:100080003AD03ED242D446D672D876DA7ADC7EDED8
:10009000EF00400F824092422243B2434245D24594
:1000A0006246F246025792572258B258425ED25EDA
:1000B000625FF25F21610B000004370700205107E7
:1000C0001C43858BF5FFB70700201307400298C338
:1000D00082803707002051071C43858BF5FFB70747
:1000E0000020294798C382808346050091CE3707B8
:1000F000002051073706002005051C43858BF5FFBE
:1001000014C283460500EDFA8280411181469308AE
:100110004100B7D5CCCC9385D5CC254821C98506DF
:100120003386D8003337B5020D8393172700BA976B
:100130008607B307F54093870703A30FF6FEAA8748
:100140003A85E36EF8FC8DC24C00AE96370700206E
:1001500051073705002003C6F6FF1C43858BF5FFCA
:1001600010C1FD16E399D5FE4101828037070020BA
:1001700051071C43858BF5FFB707002013070003C9
:1001800098C3DDB78280397106DE22DC26DA4AD8D0
:100190004ED652D456D25AD05ECE62CC66CA6AC807
:1001A0003707002085471CC79306F01554C7E14662
:1001B00014CB5CC3B545B737000293870716930687
:1001C00047013A85373700021307C7178507904262
:1001D000058A75FE0CC183C50700E399E7FEB707E2
:1001E000003023A607000547D8C3EF00D0573735A6
:1001F000000213050518EF101043371D00013704E6
:1002000000205104B70A00204DA9371700018327A9
:10021000070885072320F70879272DCD93050020AF
:100220003705000113050544EF003011AA84371784
:1002300000018327C7078507232EF7069307F5FBE1
:1002400093F7F70F0947636DF7021C40858BF5FFA5
:1002500023A09A002685EF10903B930720052304E6
:10026000F10093078005A304F10093070002230522
:10027000F100A3059100230601002800EF10B03A19
:10028000B717000183A7470C95EBB717000123AC04
:10029000070A91A1930500203705000113050544C5
:1002A00055272DDD732700C0B717000123ACE706E3
:1002B000B7170001054723AAE7068DB7F32600C04C
:1002C000B717000103A707073387E640B7879A00EF
:1002D000938777ECE3FBE7FAB717000123A8D7066B
:1002E000E93B3735000213058518FD3B373900021D
:1002F0001309C93D930B0901130B4901B70900010B
:1003000093890944130AF002832709008607CE97D0
:10031000039707003D8703D50700398D198D4205E6
:100320004181E533630A79011C40858BF5FF23A0E9
:100330004A011109E31A69FD373500021305051951
:100340006533ADE01C40858BF5FF9307000323A0C8
:10035000FA0037350002130545197933B717000144
:1003600003A507085D33373500021305C519AD3BFA
:10037000B717000103A5C707493B3735000213052E
:10038000451A9D3301455133A9333707000113073F
:100390004745BA8681498145A9471305F01F1308CF
:1003A000E004A9A013D744001377F70FB737000272
:1003B0009387C73DBA9703C747011C40858BF5FF5C
:1003C00023A0EA00BD88B73700029387C73DA697F0
:1003D00003C747011C40858BF5FF23A0EA0095BFAA
:1003E0002E898507638607038906CA856362F53A05
:1003F000039606003D8603D90600334926013309DA
:10040000C940420913590901E3DC25FDBE89D1BF6A
:10041000014A0146A9479385F9FF1308E004130533
:10042000F01F9388190025A06361F5368316070035
:10043000BD8683540700B58C958CC204C180635E71
:1004400096003E8A8507638C070109072686E3CD5F
:10045000B7FCB284E3CAF8FCF5B7B284E5B7B139AA
:10046000373500021305C51A41314E8B4E8571395F
:100470001C40858BF5FF9307000423A0FA00AD67AD
:100480009387B7713305FB0225814131373500026F
:100490001305451B91394A858D39373500021305FF
:1004A000C51B9931528952858D311C40858BF5FFD2
:1004B0009307000423A0FA00AD679387B771330553
:1004C000F90225819931373500021305451C293978
:1004D00026852539FD3E55BBB717000123A6D70653
:1004E000E93E373500021305C51CFD3E03254D08C6
:1004F0002939373500021305451DFD36712131318B
:10050000373500021305C51DC5366121FD3E37355F
:1005100000021305451EC93E5121C53E3735000274
:1005200013054519D136B717000103A50708F13E99
:10053000373500021305C519453EB717000103A55D
:10054000C707E136373500021305451A713E0145EC
:100550006D3E41369D36373500021305851E6936DE
:10056000B707004803A547084D3637350002130585
:10057000451F9D3EB707004803A5870879363735E4
:1005800000021305C51F8D36B707004803A5C7082D
:10059000AD3E3735000213054520B936B7170001C7
:1005A00003A5470B9D36373500021305C5202D3EA8
:1005B000B717000103A5070B893E37350002130565
:1005C00045211D36B717000103A5C70A3D3E113668
:1005D000B1AA85066383B60293971600B297039774
:1005E00007003D8783D70700B98F998FC207C18362
:1005F000E3D1F4FEBE843689E9BFC1343735000249
:100600001305C521D534CA894A850136832B0400D8
:1006100093FB1B00E39C0BFE9307000423A0FA004E
:10062000AD679387B7713385F9022581F93C37357A
:100630000002130585224D3C2685C13C373500025A
:100640001305C52255345145C9346134370C0001B6
:10065000130C0C0293090020B73C0002938C4C232E
:10066000130B000209A8B534E90B130C4C039919BC
:10067000E1576380F90491346685BD345E85713439
:1006800062898144694AE38099FE83170900BD8726
:10069000035509003D8D1D8D420541811C40858B10
:1006A000F5FF23A06A01953485040909E39D44FD03
:1006B0005DBFEF00F07CEF10700883274D088507C1
:1006C0002322FD08C928B12A7129B717000183A781
:1006D000870BE39C07B2B717000183A7470791CFA9
:1006E000F32700C03717000103278707998F37F7D3
:1006F0003D0713070716B3B7E7003717000123209C
:10070000F70AEF00B03FB717000183A7470CD5D316
:10071000F32600C0B717000103A7C7063387E640DA
:10072000B7076A029387F7B1E3E8E7DAF32600C078
:10073000B717000103A787063387E640B7F73D07E1
:100740009387F715E3F7E7F6B717000123A4D70659
:10075000B71600488147B7050001938505021305C8
:1007600000209042139717002E972310C70085078B
:100770009106E398A7FE014981449146370600019E
:10078000130606029305002081BD85070907C1B144
:1007900085078906A1B9B7070020DC4B898B99CF63
:1007A000B70700209C4393F6F70F93F7F70D938755
:1007B000F7FB93F7F70F0D476373F7008280B717C6
:1007C000000183A747093D47637FF7003716000103
:1007D0000327860905073D8B232CE608FD173717ED
:1007E0000001232AF708371600018327C6093707B7
:1007F0000001130707433E972300D7008507BD8BF1
:10080000232EF60837170001832747098507232A77
:10081000F708371700018327870A85072324F70A7B
:100820008280F32600C0B717000183A70709054798
:10083000638DE70C09476381E71291E7B717000161
:1008400083A7070A91C38280B717000103A747094E
:100850007DDBB715000183A7850937060001130664
:1008600006433E96034606008507BD8B23ACF5087C
:100870007D17B717000123AAE70893074006630016
:10088000F602930740046301F6049307F6F993F721
:10089000F70FE545328763E9F500B28719A09307A2
:1008A0003006811713F7F70F930720046302F7024E
:1008B00093073004630AF700930510048567938754
:1008C00037DF630AB70082808567938727B721A047
:1008D00085679387171EC20793E7E77D37070050A8
:1008E0005CC3B717000123A6D7089377F60D93874B
:1008F000C7FB93B71700371700012324F708B71772
:100900000001054723A8E7088280B717000103A765
:10091000C7083387E640B717000183A7870893B756
:100920001700B307F04093F747F69387C71229667D
:10093000130646E3B387C702E367F7F0B707005033
:10094000054798C7B717000123A6D708B7170001B6
:10095000094723A8E7088280B717000103A7C70843
:100960003387E640B737F7009387F713E3FDE7ECEB
:10097000371700018327470A85072322F70AB7178D
:10098000000123A807088280B717000103A5870A82
:100990008280B717000103A5470A8280B7170001BC
:1009A00003A547098280B717000103A5070933355E
:1009B000A0008280894763D3C708F5156350B60845
:1009C0000111691506063307C5004C00081003160F
:1009D00007003D8683570700B18F918FC207C183FF
:1009E0009CC109079105E394A5FEC2479CC212472A
:1009F00063C3E704224763C0E704324763CDE702DD
:100A0000D24663CAD702624663C7C702724663C44E
:100A1000C70213961700198E158E635EC000158FDE
:100A20001385A7FF3305C5020E053307E7023A9584
:100A30003325A00011A001450561828023A0060096
:100A400001458280011106CE74006D46A537F24043
:100A500005618280397106DE22DC26DA4AD84ED65C
:100A600052D456D22A84AE8454085946A137AA8952
:100A700014086D46A6852285353F2A8A7400130620
:100A80007002A68522853D372A893400130620038B
:100A9000A68522850537AA8A540013060002A6857A
:100AA0002285093FFD55630609003249814563509F
:100AB000200563870A00A2476354F9003E898545F3
:100AC00001C59247634BF904B336300193371A00DE
:100AD000F58F8DE3B337400113B719007D8F0DEB10
:100AE000FD8E8DCA5245C2473325F50029A0014924
:100AF000FD55C1B7014563D40500FD552E85F25063
:100B00006254D2544259B259225A925A2161828077
:100B10000545D5B7FD552E85DDB7B3363001933782
:100B20001A00F58F89450145F9FBB337400113B72A
:100B300019007D8F05454DD7D9B7011106CE193F54
:100B40002AC42EC663CE05007D153335A0001605D8
:100B5000130515042E951375F50FF240056182807B
:100B60000145E5BFB717000183A7870BADE3B707C2
:100B7000004883A70709370700010327C700630858
:100B8000F704370700012326F700B7070001938712
:100B90000744138607403717004814432390D700B3
:100BA00011078907E39BC7FE371700018327470B0F
:100BB0008507232AF70A371700018327070B8507C4
:100BC0002328F70AB7170001054723ACE70A8280FC
:100BD000034705009307500A631EF7040347E50126
:100BE0009307A0056318F70483473501858B3717F2
:100BF00000012322F70C13074501B7070001938773
:100C0000070013869700834607002380D700050757
:100C10008507E39AC7FE8347D50193F7F7073707A0
:100C200000012308F700371700018327070C850709
:100C30002320F70C8280732600C0B7070038C8C392
:100C40001387C700D166938686C61C43898B89EFBC
:100C5000F32700C0918FE3FAF6FE371700018327D0
:100C6000C70B8507232EF70AB7070038884313758B
:100C7000F50F8280411106C622C43704003885472B
:100C80001CC419454D3F23240400B24022444101B5
:100C90008280411106C622C43704003885471CC42F
:100CA0001545513F0145413F23240400B2402244F1
:100CB00041018280011106CE26CAF32400C0B71775
:100CC000000183A7070D95CF22CC4AC84EC63794A2
:100CD000B00113040463B719000141495D3F058960
:100CE00011CDF32700C0858F6361F40283A7C90B80
:100CF000E376F9FE62444249B24921A06244424986
:100D0000B249F240D2440561828062444249B2490C
:100D1000CDBF411106C622C42A8441811375F50F47
:100D2000193F135584001375F50F31371375F40F00
:100D30001937B240224441018280411106C622C4C3
:100D400026C2AA84053F3704003885471CC4130512
:100D50000002D5357D75658D6D3F23240400993FD4
:100D6000B2402244924441018280411106C622C40D
:100D700026C24AC02A84AE843289ED3DB7070038C6
:100D8000054798C70945453D22856137635A2001CB
:100D90002684CA9403450400793D0504E31C94FEAF
:100DA000B707003823A407003137B24022449244E9
:100DB000024941018280411106C622C426C24AC0AE
:100DC0002A84AE843289B7070038054798C70D4595
:100DD0009D3522853D3F635B20012684CA940145F1
:100DE000993D2300A4000504E31B94FEB7070038D7
:100DF00023A40700B2402244924402494101828068
:100E0000732600C0370700285107B7A67B009386DA
:100E1000068A01A87D558280F32700C0918FE3EBFD
:100E2000F6FE1C43898BEDDBB7070028884313755A
:100E3000F50F8280732600C0370700285107B716C8
:100E40000300938646701C43858B91C7F32700C02F
:100E5000918FE3FAF6FEB707002888C3828041111C
:100E6000814693084100B7D5CCCC9385D5CC254895
:100E700021C985063386D8003337B5020D83931711
:100E80002700BA978607B307F54093870703A30F98
:100E9000F6FEAA873A85E36EF8FC8DC24C00AE964A
:100EA0003707002051073705002003C6F6FF1C4313
:100EB000858BF5FF10C1FD16E399D5FE41018280B7
:100EC0003707002051071C43858BF5FFB70700202B
:100ED0001307000398C3DDB713574500B737000267
:100EE0009387C744BA9783C6070037070020510786
:100EF0001C43858BF5FFB707002094C33D89B737A6
:100F000000029387C744AA9783C6070037070020CB
:100F100051071C43858BF5FFB707002094C38280DF
:100F2000B717000103A5070D8280B717000103A5BD
:100F3000C70C8280B717000103A5470D8280B71741
:100F4000000103A5870C8280370500011305050009
:100F50008280B707000103C507018280B71700012F
:100F600003A5070C82805D7186C6A2C4A6C2CAC052
:100F70004EDE5ED662D43707002885471CC793062D
:100F8000F01554C7E14614CB5CC313064002B736D4
:100F9000000293868623370700205107370500207B
:100FA000B73500029385252485061C43858BF5FF04
:100FB00010C103C60600E399B6FEB71900018544C7
:100FC00023A8990C45393704003804C42685A53177
:100FD000014595310945853123240400E13959390A
:100FE00004C413058009813923240400E1315531FB
:100FF0002A899377C509B337F000371700012326F4
:10100000F70C130530053D354A852D3504C413050D
:10101000F0091531014505312A8C01452939014571
:10102000193993071CF193B7170023A8F90C23244F
:10103000040083A7090D856489040144FD5B81CF09
:1010400052DC56DA5AD88A8A054AC149556B250BB3
:10105000130900204DA0B717000123AA070C13069F
:101060004002B73600029386462437070020510716
:1010700037050020B73500029385F52485061C430B
:10108000858BF5FF10C103C60600E399B6FE6285A5
:10109000A13513060002B73600029386461A3707B9
:1010A0000020510737050020B73500029385851AC7
:1010B00085061C43858BF5FF10C103C60600E39926
:1010C000B6FEB717000103A5C70B513B3707002039
:1010D00051071C43858BF5FFB7070020294798C3AC
:1010E0003735000213054527EF00F05361AA0504C8
:1010F000C104630424035286D68526856D3983474F
:1011000001009387E7FB93F7F70FE3E2F9FEB3578C
:10111000FB00858BE9DFA28BD9BF850B13D7FB4181
:101120005D83B387EB0093F7F71F998F37170001A3
:10113000232AF70C130600028A850145AD390A857A
:10114000413C13064002B736000293860625370756
:101150000020510737050020B73500029385B525DB
:1011600085061C43858BF5FF10C103C60600E39975
:10117000B6FE6285953313060002B73600029386E9
:10118000C62537070020510737050020B735000274
:101190009385052685061C43858BF5FF10C103C684
:1011A0000600E399B6FEB717000103A5470D4539C0
:1011B00013060002B7360002938646263707002042
:1011C000510737050020B73500029385852685062F
:1011D0001C43858BF5FF10C103C60600E399B6FEDC
:1011E000B717000103A5C70C9D3913060002B736D7
:1011F00000029386461A3707002051073705002062
:10120000B73500029385851A85061C43858BF5FF4B
:1012100010C103C60600E399B6FEB717000103A587
:10122000C70B353913060002B73600029386C6266F
:1012300037070020510737050020B7350002938596
:10124000152785061C43858BF5FF10C103C60600D4
:10125000E399B6FEB717000103A5470C093137071C
:10126000002051071C43858BF5FFB7070020294755
:1012700098C33735000213050528EF00D03A625AAB
:10128000D25A425BB640264496440649F259B25BB4
:10129000225C616182802A87B717000103A5070DD0
:1012A00011E18280411106C622C42E84B7170001C5
:1012B00083A7470D3385E7401305F53F9357F54165
:1012C000DD833E951375F51F1D8D130505104146F1
:1012D0001205D534834724009387E7FB93F7F70F74
:1012E0004147636BF700556525053355F5000589C2
:1012F000B2402244410182800145DDBFB70700288A
:10130000DC4B898B6386072AB70700289C4393F739
:10131000F70F9387D7FB4547636CF7285D7186C647
:101320008A073737000213074740BA979C438287E2
:10133000A2C4A6C200080410E134634505262300B8
:10134000A4000504E39A84FEB717000183A7070DE4
:1013500091C7B717000183A7C70C99C7130550049D
:10136000D13C2644964455AAB717000103A4470D63
:1013700093040410920405469305F1002685253C4C
:101380001377F4EF133717008347F100938717F0B3
:10139000D98F99C3268555324146B305C1002685AC
:1013A000E93205041357F4415D83B307E40093F772
:1013B000F71F998F37170001232AF70C3717000101
:1013C0008327870C85072324F70C1305B0049D346D
:1013D000373500021305C528EF00F0242644964453
:1013E0002DAAA2C4A6C200080418193C634F051A0E
:1013F0002300A4000504E31A94FEB717000183A795
:10140000070D91C7B717000183A7C70C99C713052C
:1014100050040D342644964409A20145393A000887
:1014200013060002A285014589322285EFF04FFAAA
:101430001305B00401343735000213058529EF0088
:10144000901E26449644D1A8A2C4A6C20008130642
:101450000002A28501458532041803450400D93AEB
:101460000504E31C94FE2644964445A8A2C4A6C2E3
:10147000413A2A847132AA846132336794007D83B1
:1014800093271500D98F81C72644964479A0CAC0F6
:101490004EDE52DCAA89914763D3A700BE89931719
:1014A0008400C58F13D7F7415D83BA9793F7F71F71
:1014B000998F3E8A01490410B3072A0113D7F741D7
:1014C0005D833385E7001375F51F198D130505102E
:1014D0004146B305C1001205F93800080345040070
:1014E000913A0504E39C84FE930719003E89E3C505
:1014F00037FD264496440649F259625A39A8A2C4D7
:10150000B717000103A4470D135584401375F50F59
:1015100015321375F40F393A2644B6406161828062
:10152000B717000183A7070D89EBB717000123AA9E
:10153000070C13055004FD38CDB70565EFF0EFFF3C
:101540000965EFF08FFFB717000123AA070C3717C3
:1015500000018327870C85072324F70C1305B004AB
:10156000D138373500021305852AEF00D00B75B747
:10157000A2C4B7070038054798C71305F009EFF074
:101580008FEB0D440145EFF00FEB6D307D147DF8CE
:10159000B707003823A40700264441B7EFF06FEFE8
:1015A0005138A5BF264496448DBF26449644B5B70E
:1015B0008280B717000183A7870ED1E33707002089
:1015C00051071C43858BF5FFB70700201307400226
:1015D00098C3138747011C43858BF5FFB70700208D
:1015E0001307800498C3138747011C43858BF5FFBD
:1015F000B70700201307000598C3138747011C4352
:10160000858BF5FFB70700201307000298C38346B8
:10161000050081CE138747013E8605051C43858B57
:10162000F5FF14C283460500EDFA37070020510785
:101630001C43858BF5FFB7070020294798C382809C
:101640008346050091CE370700205107370600205A
:1016500005051C43858BF5FF14C283460500EDFA92
:101660008280B717000103D5470E8280B7170001AB
:1016700003A5070E8280B717000103A5C70D82805E
:10168000797106D626D2F32600C0B717000183A4CD
:10169000870EB7F73D079387071689C4B7B7352478
:1016A0009387076E371700010327870D3387E640BE
:1016B0006376F700B25092544561828022D44AD0BA
:1016C0004ECEB717000123ACD70C373500021305F7
:1016D000452BC535B707004883A74708BE89B7071C
:1016E000004803A4C70803A7070893578700FD8B8A
:1016F000CD46014963E6F6001377F7031339B701C6
:1017000089C8B717000183A7470F6384370113699E
:101710002900373500021305852B613DB7070050BE
:101720009C4399E313694900373500021305C52B23
:101730004935B70700609C4399E313698900373541
:1017400000021305052CB535B70700309C4399E31B
:1017500013690902373500021305452C993DB70777
:101760000020D84B8D4763E4E7001369090437353F
:1017700000021305852C353DB7070028D84B8D474F
:1017800063E4E70013690908373500021305C52C27
:101790000D35B7070038D8478D4763E4E700136974
:1017A0000910373500021305052D2135B7070070E4
:1017B0009843854763F2E708373500021305452D46
:1017C000CD3B81C8B717000183A4070F818CB334C8
:1017D0009000B717000123AA370FB717000123A8FD
:1017E000870EB717000103D4C70E33648900239610
:1017F000270FB71700012392870EB717000123A008
:10180000970E93571400858B37170001232EF70C82
:10181000B707000183D7270163938702B717000139
:1018200083A7870EC9EBB7170001054723A4E70E6E
:1018300022540259F249BDBD13690901B5BF93078E
:1018400080042302F1009307C004A302F100930770
:1018500040052303F10093070002A303F10093075F
:10186000D0042304F1009307D003A304F100B73799
:10187000000293870746135784003D8B3E9703472A
:1018800007002305E100135744003D8B3E970347B3
:101890000700A305E1001377F400BA9783C7070098
:1018A0002306F100A30601004800B52BB70700018D
:1018B00023998700A5B7373500021305C52D493395
:1018C000135784003D8BB737000293870746BA97BA
:1018D00083C647013707002051071C43858BF5FF5E
:1018E000B707002094C3135744003D8BB73700025D
:1018F00093870746BA9783C64701370700205107E9
:101900001C43858BF5FFB707002094C31377F400C1
:10191000B737000293870746BA9783C64701370750
:10192000002051071C43858BF5FFB707002094C3A7
:10193000373500021305452E2133098833348000E2
:10194000130404033707002051071C43858BF5FF60
:10195000B707002080C3373500021305C52ECD31EF
:10196000938404033707002051071C43858BF5FF40
:10197000B707002084C3373500021305452FC9314E
:10198000EFF00FDA3335A000130505033707002009
:1019900051071C43858BF5FFB707002088C33735F7
:1019A0000002130545266939EFF02FD83335A00022
:1019B000130505033707002051071C43858BF5FFEE
:1019C000B707002088C3373500021305C5258D39B8
:1019D000EFF04FD6814693084100B7D5CCCC938524
:1019E000D5CC254825C585063386D8003337B502C2
:1019F0000D8393172700BA978607B307F54093879F
:101A00000703A30FF6FEAA873A85E36EF8FC8DC2A2
:101A10004C00AE963707002051073705002003C65B
:101A2000F6FF1C43858BF5FF10C1FD16E399D5FE2B
:101A30003707002051071C43858BF5FFB7070020AF
:101A4000294798C322540259F249ADB13707002003
:101A500051071C43858BF5FFB707002013070003D0
:101A600098C3F9B7732600C0370700582107A96645
:101A7000938646E31C43858B91C7F32700C0918F63
:101A8000E3FAF6FE8280411106C622C426C24AC08D
:101A90002A89C93FB717000183C4071393F7E40FDE
:101AA000370400585CC07D3FB707005823A02701CA
:101AB000553F93E4140044C0B2402244924402498A
:101AC00041018280411106C622C4B717000103A458
:101AD00087129307F00263E48704AA85B717000111
:101AE00083A7C712A29737B7AAAA1307B7AA33B713
:101AF000E70215839316170036971207998F13077D
:101B00006002B387E7023A863715000113050584A2
:101B10003E95D5240504B717000123A48712B240CF
:101B2000224441018280397106DE2304010023151D
:101B3000A1002316B1002317C1002318D1002319D7
:101B4000E100231AE100231B0100230C01002800FF
:101B5000953FF25021618280397106DE05482304E9
:101B600001012315A1002316B1002317C10023187A
:101B700001002319D100231AE100231B010083C6B1
:101B800007008DCA01472C0055453386E500230820
:101B9000D6000507B386E70083C6060099C2E316A0
:101BA000A7FE1C183E97230407FE2800213FF25091
:101BB000216182800147F5B783C7050081CB850588
:101BC0000505A30FF5FE83C70500F5FB23000500FF
:101BD00082804111AA8E0147130E4100B7D8CCCCA8
:101BE0009388D8CC2543A1C905073A883306EE006F
:101BF000B3B615038D8293972600B6978607B387F1
:101C0000F54093870703A30FF6FEAE87B685E36D15
:101C1000F3FC15CB50003297F6878346F7FF2380FD
:101C2000D70085077D17E31AC7FE33850E01230011
:101C30000500410182800505930700032380FE0013
:101C4000A3800E00FDB77685DDB7411106C6E167BA
:101C50009387F76963E6B700AD3FB24041018280E8
:101C6000B7576210938737DDB3B5F5029981953781
:101C7000B73500029385C52F8137C5B703470500E7
:101C8000814709CB6384F50285073307F5000347D5
:101C900007006DFB63F0B702AA97B386A500130790
:101CA00000022380E7008507E39DD7FE2E952300E1
:101CB00005008280BE85DDBF83470500A20793F73C
:101CC0000780034715000E071377077ED98F034758
:101CD00025000D8333E5E7004205418182804111F3
:101CE00006C622C42A84EFF0CFA6AA870547630060
:101CF000E4020947630AE40239E013774500054529
:101D00001DEB93F7070422859DC719452DA0137776
:101D100015000D450DE313F50701133515003305C7
:101D2000A04065991D0501A80989133515003305E3
:101D3000A0406D991505B24022444101828013777D
:101D4000050209456DFB858713F54700EDB7411185
:101D500006C622C426C22A84313393578400B704AE
:101D600000589CC001331374F40F80C0B240224469
:101D7000924441018280411106C622C426C22A84AF
:101D8000D53193578400B70400589CC0E1391374CF
:101D9000F40F80C0B240224492444101828001117C
:101DA00006CE22CC26CA4AC84EC6AA842E843289C0
:101DB000B6891305A002C1392685753F1306F9FFC0
:101DC0003385C400420541817D371305B002653972
:101DD000228555379386F9FF3305D40042054181AA
:101DE000593F1305C0024531F2406244D244424992
:101DF000B2490561828019CA2A96AA878505850796
:101E000003C7F5FFA38FE7FEE31AF6FE8280B7074C
:101E10000001238EA700371700018327C714850709
:101E20002326F71482804111B717000183A8871475
:101E300093972800C6978A07C697B7150001938520
:101E400005F6BE95B717000103A6C71375C2014773
:101E5000130E410037D3CCCC1303D3CC0507330882
:101E6000EE00B33666028D8293972600B6978607FA
:101E7000B307F64093870703A30FF8FEB2873686B1
:101E800093B7A70093B7170093266700F58FF9F76C
:101E900051CF3A86130841004297AE878346F7FF39
:101EA0002380D7007D178507E31A07FF3387C50016
:101EB000930730052300F7009307260093060002DE
:101EC000A300D700034705004D4811CF636DF8000C
:101ED0008507B386F500A38FE6FE3387C7402A97B0
:101EE0000347E7FF65F7AE97238007008508B7B77C
:101EF000AAAA9387B7AAB3B7F802898313971700E2
:101F0000BA978607B388F840B717000123A41715BE
:101F1000B717000183A7471415476367F7008507C4
:101F2000371700012322F714410182800146BDBF0B
:101F3000930700032302F1000547A1BF197186DE54
:101F4000A2DC732400C0B71600013717000183A775
:101F5000461303268713918FA29723AAF612232CE8
:101F6000871237076A021307F7B1637CF702371746
:101F700000010327C7130507370696FD1306064E13
:101F8000B7066A029386F6B1B297BA850507E3ED04
:101F9000F6FE37170001232EB71237170001232A48
:101FA000F712B717000183C747110547638CE70293
:101FB00009476380E70863970714914737170001C3
:101FC0002308F712370700585CC3B717000123A88E
:101FD0008710B71700010547238AE710F6506654AB
:101FE00009618280B717000103A707113307E44096
:101FF000B7670C009387F7C0E3F2E7FE99473717FE
:1020000000012308F712370700585CC3B7B75C001C
:1020100093878727A297371700012324F710B71754
:10202000000123A60710B71700010947238AE7100C
:1020300075B7B717000183A78710B307F440E3CF44
:1020400007F8A6DAB717000183A7C710BE8499471F
:1020500063F99700B71700010D47238AE710D6549C
:10206000B5BFCAD8139724002697B73700029387C5
:10207000874CBA973E8903C507003134834719005E
:10208000A1C7CED60149B73700029387874CBE89D6
:1020900093972400A697CE97CA9783C72700BE843C
:1020A000D132B707005884C3930719003E89B71788
:1020B000000183A7C710BE848A07A697CE9783C75F
:1020C0001700E367F9FCB659713A13972400269775
:1020D000B73700029387874CBA9783C747002967B1
:1020E000130747E3B387E702A297371700012324BA
:1020F000F71093871400371700012326F710D654E2
:102100004659E9BDDAD0B717000183A747123E8BC5
:10211000D5E7CAD8B717000183A787123E89639510
:102120000730EFE0BFE3B707000183A7870163151E
:10213000F53ACED6B717000103C75710DA89914692
:10214000B3573701858B639D073E93871900BE897E
:10215000E398D7FEB717000103C747105A85914689
:10216000B357A700858B6395074E0505E31AD5FE87
:10217000B717000183A6C70FB306D440B7B75C00FA
:102180009387772763E4D7006F00F07CB7170001CF
:1021900023AE870E37160001832706108546B396B7
:1021A000F600558FB71600012382E61085078D8B48
:1021B0002320F6104659B659065B0DB5B717000136
:1021C00083C707FEADE3CED6B717000183A707127A
:1021D000BE89B9C3A6DACAD8BE849307000463F3E4
:1021E0003701BE840144B7170001938707843E89F5
:1021F0000355A97AA93E0504E36C94FEB387994080
:10220000371700012320F71291C7D6544659B65903
:10221000065BE9B3D6544659B717000123A207124B
:10222000B659065B65BB09476387E702EAC8B7177B
:10223000000183A787113E8DB7170001938707849C
:10224000EA9783C7077BD9EFB717000123A20712CC
:10225000065B464D61B3CAD8B717000183A70712C2
:102260003E89B5CBA6DACED6BE899307000463F3C8
:102270002701BE898144371400011304048409A88E
:102280000355C47AE93493871400BE8463F7370397
:10229000B717000183A7C711B3872741A697035734
:1022A000647AB3D7E7020357847A8356E47A158FAA
:1022B000E3E8E7FC0355A47AF1B7B30739413717D0
:1022C00000012320F71291C7D6544659B659065B30
:1022D00031B3D654B659B717000123A20712465995
:1022E000065BEDB9A6DACAD8CED6D2D4D6D2DECE27
:1022F000E2CCE6CA37170001835667FE368791E2C3
:10230000054742074183BA841387F7F91377F70F1C
:10231000E54663EBE606811793F7F70F81171397EE
:102320002700BA973E8B93963400C206C18213965B
:10233000140026960606420641823717000113074D
:102340000784B387A403939517003385B700060568
:102350008357277A3E958355477A420541818134D8
:1023600093973400BE8C93971400A6978607BE8976
:10237000014CB7170001938707843E8AB7370002E4
:102380009387874CBE8B81A8138707FE1377F70FBF
:102390009306A003E3F4E6F89307F00341B703556F
:1023A000CA7A7532050463733403B357940213B7C2
:1023B00057003377E90065D7DE97DA9783C747027E
:1023C000B3F75701E9DF0355AA7AE1BF93071C0071
:1023D0003E8C63FD9701B3579C0213B777003A898F
:1023E0000547B317F700BE8A0144C1B793071D0024
:1023F00037170001232CF710371700011307078444
:10240000BA9783C7077BE3930750B717000123A24E
:102410000712D6544659B659265A965A065BF64BB9
:10242000664CD64C464D5DBEA6DACED6B71400013A
:1024300003A4C412B717000193870784BE899305CC
:102440006002B305B40213066002BE951385077AD5
:102450005D320504B7B7AAAA9387B7AAB337F402C7
:10246000958313971700BA9792071D8C23A68412A1
:102470009307F9FF371700012324F712B71700015C
:10248000054723A2E71283C7097A93F7D70F91CBA9
:10249000B717000123AC0710D6544659B659065B4E
:1024A00035BE03D4697A03D7897ABA84BA8622867C
:1024B00083D5497A03D5297ADD3033049402B717DE
:1024C000000123AE8710B717000123A08712D6544E
:1024D0004659B659065B19B6EFE05FA8B707000189
:1024E00023ACA700EFE05FA62A84EFF0EFFCB7175C
:1024F0000001239AA71413053400EFF0EFFBB71780
:1025000000012399A71413056400EFF0EFFA2A875E
:10251000B71700012398A7149306000F13060014A1
:1025200081450145EFF02FE0BD4737170001A302B9
:10253000F710371700012302F7104659065B79BCE4
:10254000A6DAD2D4D6D28547B397370193C7F7FF1F
:102550007D8FB7170001A382E71013973900B737B3
:1025600000029387874CBA9703D4C71403D7E714A4
:102570003A8903D707153A8637170001035707151D
:102580003A8A83D62715B284CA852285EFF0AFD95F
:10259000B717000103D74715BA8A1386C4FF9305FE
:1025A000290013052400C14642064182C205C181AB
:1025B00042054181EFF02FD719044204418093076F
:1025C0006900C207C183BE844E85EFF04FF11D47FD
:1025D0006366A7069317250037370002130787485D
:1025E000BA979C438287B737000293870730568794
:1025F000D2860546A6852285EFF00FD6D6544659D9
:10260000B659265A965A065BD1BAB7370002938755
:102610000731F1BFB737000293878731C9BFB7379A
:10262000000293870732E1B7B737000293878732FA
:102630007DBFB73700029387073355BFB737000216
:10264000938787336DB7B73700029387873045B7D5
:10265000DECEE2CCE6CA8547B397A70093C7F7FF63
:102660007D8FB71700012382E71013173500B737A6
:1026700000029387874CBA9703D7C7143A8C03D7C5
:10268000E714BA8B590742074183BA8C03D7071561
:102690006117420741833AC403D42715EFF02FE4B2
:1026A0001D47E361A728931725003737000213075A
:1026B000874ABA979C438287A6DAD2D4D6D2EFE073
:1026C0005FFAAA891384AB0142044180B737000244
:1026D000938747363E8AB73700029387073DBE8A05
:1026E00093078C00C207C1833E896F00900B93074C
:1026F0008C00C207C183BE849387CB0BC207C18302
:102700003E89EFE0FF8141641304048019C1130482
:10271000007EB717000183D70715BE89EFE05F8001
:1027200015C5B73700029387C7334E87A286054683
:10273000CA852685EFF04FC2D6544659B659265A57
:10274000965A065BF64B664CD64C49B8B737000232
:1027500093874734D9BFA6DA93078C00C207C18399
:102760003E85B717000183D72715BE86B71700012E
:1027700083D707153E87B737000293878736BA8419
:10278000B6890546E6852A89EFF00FBDB707000137
:1027900083C7C701230CF100A30C01002008938517
:1027A000EB02A24713D517009307ECFF3E95A287D3
:1027B0002687B716000183D646150946C205C18192
:1027C00042054181EFF04FB9B735000293850537D7
:1027D0002285EFF06FBEB717000183A5C714EFF095
:1027E0004FBFB5452285EFF06FC993856B05A28772
:1027F0002687CE860546C205C1814A85EFF0CFB552
:10280000D6544659B659065BF64B664CD64C6FF01B
:10281000EFFCA6DAD2D4D6D2EAC893074C00C2079E
:10282000C183BE89930784FDC207C183BE84370676
:102830000001130606441304060213060607228746
:102840009307C0033E8A21A00907630FE6008316A1
:102850000700BD8683570700B58F958FC207C183D8
:10286000E354FAFE3E8ACDB7C1473E89268BB707AF
:102870000318938717413E8D15A83717000183561B
:102880002715B5A02313E102230401022808EFF065
:102890006FA3930719003E89090493873900C20783
:1028A000C183BE8993078003630CF90603170400F4
:1028B0003D8783570400B98F998FC207C183B387BF
:1028C0009702B3D7470363F3F400A68791E38547E4
:1028D000C207C1831307A9FEF146E3E0E6FA3357C6
:1028E000ED00058B59DB3717000183564715371765
:1028F000000103570715BA8A0947230CE100231D7D
:102900003101231E9101231FE100231091022311A5
:10291000D102231251032687E3F667F73E879DB75E
:102920009387AB01B385F40013056C00B737000241
:10293000938747375687B716000183D62615054675
:10294000C205C18142054181EFF00FA1D65446591D
:10295000B659265A965A065BF64B664CD64C464DEF
:102960006FF0CFE7A6DAD2D4D6D2B707004883A754
:10297000C7083E8A93078C00C207C1833E85B717FC
:10298000000183D72715BE86B717000183D7071527
:102990003E87B737000293874738BA89B68A05461B
:1029A000E6852A89EFF04F9B2008D2852285EFF03B
:1029B000CFA99D452285EFF06FAC9385AB02A2872E
:1029C0004E87B716000183D646150946C205C18158
:1029D0004A85EFF06F98B735000293850539228557
:1029E000EFF08F9DB714000183A50414B305BA401E
:1029F000EFF02F9EB735000293854539EFF0CF9B5E
:102A0000B5452285EFF08FA793856B04A2874E878B
:102A1000D6860546C205C1814A85EFF0EF9323A013
:102A20004415D6544659B659265A965A065BF64B63
:102A3000664CD64C6FF08FDAA6DAEFE04FD0B707CE
:102A4000000183A747016310F506B717000183A7AC
:102A5000870FBE896351F022D2D4D6D2EAC8EEC61F
:102A6000B7170001938787003E8993878B01C207C0
:102A7000C1833E8AB73700029387C739BE8DB71727
:102A8000B7D193879775BE8C8967938707713E8D01
:102A9000B73700029387C73ABE8A93076C00C20714
:102AA000C183BE8BCDA0EFE08FC9B707000123AA79
:102AB000A700B717000123AC070EDA843714000112
:102AC000B7170001938787003E8939A093871400C8
:102AD000BE843147E38BE7F68327840F1547634FA6
:102AE000F7009207B305F9002685EFE0CFFA79DD0C
:102AF0008327840F8507232CF40EC9BFD2D4D6D2E6
:102B0000EAC8EEC6B717000183A7870FBE8989BF41
:102B10003E85EDA8B78705009387F7E363E5871245
:102B2000B7B7A2919387573CB337F40213D4B700D9
:102B300093078004BE84A285EFF0AF89230095003F
:102B4000A3000500D1452808EFF04F9363130B1045
:102B5000B717000183D647153C0837170001035704
:102B600007150546D2855E85EFE01FFF13071B00A2
:102B70003A8B130709013A899307EA00C207C18318
:102B80003E8A638D690D83470900A2070347190038
:102B9000D98FBE8403443900620483474900C207C9
:102BA0005D8C834769005D8C83475900A2075D8C6B
:102BB000EE852808EFF04F80B3B59403B581B38557
:102BC000A503B385B440EFF0CF80D685EFE0DFFEFC
:102BD000834729002300F500A3000500D6850505DD
:102BE000EFE09FFDAA879306890021059305E00584
:102BF00003C60600130706FE1377F70FE3EAE5F0B6
:102C00008507A38FC7FE8506E394A7FE2300050072
:102C1000D685EFE07FFA9307B00313073005BA8437
:102C2000E3FB87F085679387F7E0E3E587EEB797E7
:102C3000888893879788B337F40213D45700930793
:102C4000D004BE84CDBD93078004BE841304300637
:102C5000DDB5B717000183D62715FDBDD6544659FB
:102C6000B659265A965A065BF64B664CD64C464DDC
:102C7000B64D6FF0AFB66397074CEFE06FAA31C95E
:102C8000B73500029385C53420082285EFE0DFF2D6
:102C9000D1452285EFE09FFE93858B0113056C00E3
:102CA000A2873717000103570715B716000183D60F
:102CB00026150546C205C18142054181EFE0DFE9E5
:102CC000D6544659B659065BF64B664CD64C6FF057
:102CD000EFB0B7350002938545277DB7A6DAD2D489
:102CE00093078C00C207C1833E85B73700029387E4
:102CF000073AB714000103D70415371900018356AA
:102D000029150546E685AA89EFE01FE5EFD07FC8C3
:102D1000AA8520082285EFE05FF39D452285EFE03C
:102D2000FFF59385AB02A28703D70415B716000100
:102D300083D646150946C205C1814E85EFE0DFE125
:102D4000B73500029385853A2285EFE0FFE62A8AAF
:102D5000EFD0DFC4AA855285EFE0BFE7B5452285F5
:102D6000EFE0DFF193856B04A28703D70415835648
:102D700029150546C205C1814E85EFE0FFDDD65419
:102D80004659B659265A065BF64B664CD64C6FF040
:102D9000EFA4A6DAD2D4D6D2EAC8EEC6B7060001AE
:102DA0009386064636865A84C147BE8CBE85130577
:102DB000800329A0850509066380A5020317060084
:102DC0003D8783570600B98F998FC207C183E353AC
:102DD000F4FE3E84AE8CF9BFC1473E8D3E8713851D
:102DE000ECFF13882C009305800315A003960600C2
:102DF0003D8683D70600B18F918FC207C18363548C
:102E0000FB003E8B3A8D050789066307B700E34F49
:102E1000A7FCE34DE8FCC5BFB73400029385043B33
:102E20002808EFE07FD9E68DE685EFE09FDA3739B5
:102E300000029305C93AEFE03FD8AD671387B77139
:102E40003AC6B385EC02A581EFE0BFD8B7390002DE
:102E50009385493BEFE05FD6A285EFE09FD7D14550
:102E60002808EFE0BFE193076C00C207C1833E8AE8
:102E7000B717000183D70715BE8A93858B013C08DD
:102E80005687B716000183D646150546C205C1818F
:102E90005285EFE07FCC9385043B3C083E85EFE014
:102EA000BFD1EA84EA85EFE0DFD29305C93AEFE0CB
:102EB000BFD0B246B305DD02A581EFE09FD1938577
:102EC000493BEFE07FCFDA85EFE0BFD0D1453C084A
:102ED0003E85EFE0BFDAB717000183D727153E899B
:102EE00093856B023C085687CA860546C205C18198
:102EF0005285EFE07FC69387BCFE0947637EF700EB
:102F00009307BDFE93B7370013877CFE894663E6BF
:102F1000E6000547BA8921A88547138774FE133751
:102F20003700BA891387BDFD894663FEE60E138715
:102F3000B4FD8D4663F3E6109386ADFD93B636007F
:102F400013870DFD8945054663E7E500138714FEE9
:102F50001337370019A2138704FD8D4563F9E50E79
:102F6000DDA00546B286DDB7B73500029385C535CD
:102F70001DA2D685EFE05FC44A859306007E3C081B
:102F800037170001035707150546A285EFE0DFBCA0
:102F900093071B003E8B490442044180A547630808
:102FA000FBF4D2852808EFE03FC1DA85EFE07FC26D
:102FB000B3D76901858BD5FFB73500029385853C72
:102FC000EFE09FBF4A85C166938606804DBF20080B
:102FD000B73500029385C53B2285EFE0FFBDB735CD
:102FE00000029385853DEFE03FBDD1452285EFE0AE
:102FF000FFC89385CB03A2875687CA860546C205BC
:10300000C1815285EFE05FB5A24713D51700930742
:10301000ECFF3E95420541819385CB04C205C181F9
:103020001304D0026DA8138704FD8D4663E5E60006
:103030000546B28621BF854639A013870DFD894616
:10304000E3F1E6F285461386FDFC13363600138560
:103050001DFE89450547E3EBA5EE1304100481EE40
:103060001304200409EA133717003307E0401374F0
:10307000A7FE13043404B3E73701B1DBB735000210
:103080009385C53B2808EFE03FB3B7350002938531
:103090004535E38B09ECEFE03FB2D1452808EFE07E
:1030A000FFBD9385CB033C085687CA860546C205FB
:1030B000C1815285EFE05FAAA24713D5170093079D
:1030C000ECFF3E95420541819385CB04C205C18149
:1030D0009307D0026305F4009307007E3E89230C1A
:1030E0008100A30C01003C085687CA860946EFE020
:1030F000BFA6D6544659B659265A965A065BF64B81
:10310000664CD64C464DB64D6FE05FEDD6544659F1
:10311000B659265A965A065BF64B664CD64C464D27
:103120006FE0DFEB4659B659065BF64B664CD64C62
:103130006FE0DFEA4659B659065BF64B664CD64C53
:103140006FE0DFE9D6544659B659065BF64B664C3C
:10315000D64C6FE0BFE84659B659065B6FE01FE8F2
:103160000D0A53595354454D205550207633342081
:1031700028656F662D32343732290D0A00000000B1
:10318000424F4F54204F4B00444543206D3D0000BB
:1031900020643D0020736573733D0000206F6B3D1C
:1031A0000000000020746F3D00000000504B2062C2
:1031B000313D0000206D313D000000002062323DB5
:1031C00000000000206D323D0000000053595320E4
:1031D0006C703D002072783D0000000020656D3D60
:1031E0000000000020713D00414343207264793D9E
:1031F0000000000020747269673D00002069727150
:103200003D000000206362303D0000002063623119
:103210003D00000020623169783D00004D4158209A
:1032200062696E3D00000000206D3D00206361700A
:103230003D00000046000000244E4F5220696E6998
:10324000740A0000244E4F52206B6F2069643D00C9
:10325000244E4F52206F6B2069643D002068643D0E
:1032600000000000206C6B3D0000000020646267DD
:103270003D0000004E4F5220415353454E544500EF
:103280004E4F522050524F4E544100004E4F52204C
:10329000415050454E4400004E4F52205345545427
:1032A000494E4753000000004E4F5220434C4541C9
:1032B00052000000733000007332000073330000CE
:1032C0007335000073360000733700007338000058
:1032D00073340000646F6E650000000024484C5495
:1032E000206D3D00206164633D000000206666742F
:1032F0003D000000206E6F723D0000004B0000009A
:10330000534C415645530000525820504B54000036
:103310004F4E44410000000049525120444D4100AD
:103320004D454D4F52494100545820504B540000D8
:103330005045414B530000002D2D2D004E4F522083
:103340004F4B00004E4F52204B4F000056554F54EC
:1033500041000000534C4156450000004D4153547C
:103360004552000053000000554C54494D4F3A005F
:103370004E3D0000312E352D354B485A2042313616
:103380002D3535004646542046415454453A0000F8
:103390002B000000204E554F564500002300000032
:1033A000454D455353493A00434F444120000000E6
:1033B00042000000485A204D0000000053494D4291
:1033C0004F4C4F200000000020204B4F0000000019
:1033D00020204F4B000000002D00000016000000D0
:1033E0001B00000027000000320000002000000049
:1033F000303132333435363738394142434445462B
:1034000000000000201500021A1500021A15000223
:103410001A1500026C140002FE140002701500025E
:103420001A1500021A150002301300021A150002C4
:103430001A1500021A1500021A150002481400029B
:103440001A150002E21300029C15000230313233DB
:103450003435363738394142434445460000000090
:1034600030313233343536373839414243444546BA
:1034700000000000303132333435363738394142BC
:1034800043444546000000003C260002E6250002B9
:10349000462600020A260002142600021E2600020A
:1034A000282600023226000234310002B82600022B
:1034B000562700021228000264290002382A00025E
:1034C000DC2C0002922D0002010000009611000089
:1034D00000783A0155000A36016000002100000022
:1034E00000130000000A2900000032000000000064
:1034F0000000005F00000007000700147F147F1425
:10350000242A7F2A12231308646236495522500068
:1035100005030000001C2241000041221C00082A73
:103520001C2A0808083E0808005030000008080857
:103530000808006060000020100804023E51494560
:103540003E00427F400042615149462141454B3196
:103550001814127F1027454545393C4A4949300126
:10356000710905033649494936064949291E00367D
:1035700036000000563600000008142241141414CE
:1035800014144122140800020151090632497941FC
:103590003E7E1111117E7F494949363E414141220B
:1035A0007F4141221C7F494949417F090909013E68
:1035B000414151327F0808087F00417F410020408F
:1035C000413F017F081422417F404040407F020C70
:1035D000027F7F0408107F3E4141413E7F09090977
:1035E000063E4151215E7F09192946464949493124
:1035F00001017F01013F4040403F1F2040201F7FCD
:103600002018207F631408146307087008076151AD
:1036100049454300000000006000F0006000000029
:10362000800078006000780080007800E0000000F2
:043630006000F00046
:093634004F9DFFE6EDF30E1116A7
:10363D00FFFFFFFF7F00FFFFFFFFFFFFFFFFFFFF0C
:01364D002D4F
:0400000502000000F5
:00000001FF
