:020000040200F8
:1000000009A800000000000000000000000000003F
:10001000B9A8174100FF1301E1FE970200FF938288
:10002000A2FE170300FF1303233F63D6620023A041
:1000300002009102DDBF970200009382326E170327
:1000400000FF130323FC970300FF9383A3FB635973
:10005000730003AE02002320C30191021103C5BF48
:10006000B702F0FFFD120BE00206312A01A0397140
:1000700006C016C21AC41EC62AC82ECA32CC36CE34
:100080003AD03ED242D446D672D876DA7ADC7EDED8
:10009000EF00400F824092422243B2434245D24594
:1000A0006246F246025792572258B258425ED25EDA
:1000B000625FF25F21610B000004370700205107E7
:1000C0001C43858BF5FFB70700201307400298C338
:1000D00082803707002051071C43858BF5FFB70747
:1000E0000020294798C382808346050091CE3707B8
:1000F000002051073706002005051C43858BF5FFBE
:1001000014C283460500EDFA8280411181469308AE
:100110004100B7D5CCCC9385D5CC254821C98506DF
:100120003386D8003337B5020D8393172700BA976B
:100130008607B307F54093870703A30FF6FEAA8748
:100140003A85E36EF8FC8DC24C00AE96370700206E
:1001500051073705002003C6F6FF1C43858BF5FFCA
:1001600010C1FD16E399D5FE4101828037070020BA
:1001700051071C43858BF5FFB707002013070003C9
:1001800098C3DDB78280011106CE22CC26CA4AC8A8
:100190004EC652C43707002085471CC79306F0158A
:1001A00054C7E14614CB5CC33546B70600029386BC
:1001B000C66F510737050020B7050002938585718A
:1001C00085061C43858BF5FF10C103C60600E39925
:1001D000B6FEB707003023A607000547D8C337048B
:1001E0000001B7040001B7090001938949013709EB
:1001F00000013A8ABDA0370700018327074285071F
:100200002320F742930500204E85952609C97327C0
:1002100000C0B707000123ACE740232A49419305FA
:1002200000204E858121370700018327C7418507BC
:10023000232EF7409307F5FB93F7F70F0947636BFE
:10024000F7003707002051071C43858BF5FFB707E0
:10025000002088C323AC044405A0370700012320F5
:10026000F7448327444285072322F4423D20652832
:10027000392983A78445C1F383274941F9DFF3274F
:1002800000C03707000103278741998F37F73D07E3
:1002900013070716B3B7E700C9B7B7070020DC4B51
:1002A000898B99CFB70700209C4393F6F70F93F7FC
:1002B000F70D9387F7FB93F7F70F0D476373F7007D
:1002C0008280B707000183A747433D47637FF7005C
:1002D000370600010327864305073D8B232CE642A2
:1002E000FD1737070001232AF7423706000183274D
:1002F000C64337070001130747003E972300D70086
:100300008507BD8B232EF64237070001832747431D
:100310008507232AF742370700018327874485078B
:100320002324F7448280F32600C0B707000183A787
:1003300007430547638DE70C09476384E71491E79A
:10034000B707000183A7074491C38280B707000164
:1003500003A747437DDBB705000183A78543370625
:100360000001130646003E96034606008507BD8B36
:1003700023ACF5427D17B707000123AAE742930794
:1003800040066300F602930740046301F6049307F6
:10039000F6F993F7F70FE545328763E9F500B28781
:1003A00019A093073006811713F7F70F930720045E
:1003B0006302F70293073004630AF7009305100401
:1003C0008567938737DF630AB700828085679387E5
:1003D00027B721A085679387171EC20793E7E77D9C
:1003E000370700505CC3B707000123A6D7429377B5
:1003F000F60D9387C7FB93B7170037070001232437
:10040000F742B7070001054723A8E7428280B707F4
:10041000000183A7074499CFB7070050054798C745
:10042000B707000123A6D742B7070001094723A851
:10043000E7428280B707000103A7C7423387E6403F
:10044000B707000183A7874293B71700B307F040AF
:1004500093F747F69387C7122966130646E3B387D7
:10046000C702E364F7EEB7070050054798C7B70720
:10047000000123A6D742B7070001094723A8E74296
:100480008280B707000103A7C7423387E640B7372A
:10049000F7009387F713E3FAE7EA370700018327AA
:1004A000474485072322F744B707000123A80742E2
:1004B0008280B707000103A587448280B707000147
:1004C00003A547448280B707000103A54743828004
:1004D000B707000103A507433335A0008280894791
:1004E00063D3C708F5156350B608011169150606F0
:1004F0003307C5004C000810031607003D868357DC
:100500000700B18F918FC207C1839CC10907910574
:10051000E394A5FEC2479CC2124763C3E704224787
:1005200063C0E704324763CDE702D24663CAD7020D
:10053000624663C7C702724663C4C70213961700B8
:10054000198E158E635EC000158F1385A7FF3305C6
:10055000C5020E053307E7023A953325A00011A026
:1005600001450561828023A00600014582800111BA
:1005700006CE74006D46A537F24005618280397160
:1005800006DE22DC26DA4AD84ED652D456D22A8447
:10059000AE8454085946A137AA8914086D46A68529
:1005A0002285353F2A8A740013067002A6852285AB
:1005B0003D372A89340013062003A6852285053796
:1005C000AA8A540013060002A6852285093FFD551C
:1005D00063060900324981456350200563870A009C
:1005E000A2476354F9003E89854501C59247634B94
:1005F000F904B336300193371A00F58F8DE3B33722
:10060000400113B719007D8F0DEBFD8E8DCA524549
:10061000C2473325F50029A00149FD55C1B7014561
:1006200063D40500FD552E85F2506254D2544259D0
:10063000B259225A925A216182800545D5B7FD559B
:100640002E85DDB7B336300193371A00F58F894513
:100650000145F9FBB337400113B719007D8F0545FC
:100660004DD7D9B7011106CE193F2AC42EC663CE85
:1006700005007D153335A0001605130515042E95CC
:100680001375F50FF240056182800145E5BFB7079C
:10069000000183A78745ADE3B707004883A7070993
:1006A00037070001032707006308F7043707000135
:1006B0002320F700B70700019387470113860740FF
:1006C0003717004814432390D70011078907E39B8D
:1006D000C7FE37070001832747458507232AF744CC
:1006E000370700018327074585072328F744B70705
:1006F0000001054723ACE744828000000D0A5359EE
:100700005354454D205550207633342028656F666C
:090710002D32343732290D0A00A4
:04071900FFFFFFFFE0
:0400000502000000F5
:00000001FF
